:10000000C6C00000E2C00000E0C00000DEC000008A
:10001000DCC00000DAC00000D8C00000D6C000007C
:10002000D4C00000D2C00000D0C00000CEC000008C
:10003000CCC00000D1C00000C8C00000C6C0000095
:10004000C4C00000C2C00000C0C00000BEC00000AC
:10005000BCC00000BAC00000B8C00000B6C00000BC
:10006000B4C00000B2C00000B0C00000AEC00000CC
:10007000ACC00000AAC00000A8C00000A6C00000DC
:10008000A4C00000A2C00000A0C000006E616E000D
:10009000696E660000407A10F35A00A0724E18098B
:1000A0000010A5D4E80000E87648170000E40B54DF
:1000B000020000CA9A3B000000E1F50500008096AE
:1000C0009800000040420F000000A08601000000E0
:1000D000102700000000E80300000000640000009A
:1000E00000000A00000000000100000000002C7663
:1000F000D888DC674F0823DFC1DFAE59E1B1B7967E
:10010000E5E3E453C63AE651997696E8E6C28426DA
:10011000EB898C9B62ED407C6FFCEFBC9C9F40F2B6
:10012000BAA56FA5F490055A2AF75C936B6CF96732
:100130006DC11BFCE0E40D47FEF520E6B500D0EDF7
:10014000902E0300943577050080841E080000205F
:100150004E0A000000C80C333333330F986E1283FD
:100160001141EF8D2114893BE65516CFFEE6DB18D1
:10017000D1844B381BF77C1D901DA4BBE424203296
:1001800084725E228100C9F124ECA1E53D2711248F
:100190001FBECFEFD0E1DEBFCDBF11E0A0E0B1E0E8
:1001A000E4E0F7E100E00BBF02C007900D92A83B2E
:1001B000B107D9F721E0A8EBB1E001C01D92AE3B39
:1001C000B207E1F7D0D10C94800B1ACF5D9BFECF24
:1001D0008CB980E090E008951F920F920FB60F92B5
:1001E00011240F900FBE0F901F901895CF93C82F1A
:1001F0008EE59DD280E18C0FCBD2C1D21F92CF93DE
:100200008EE091E09F938F930E94B00A0F900F9021
:100210000F900F90CF910895CF92DF92EF92FF92BF
:10022000CF93C82FCB01BA0120E030E0A901D9D289
:1002300020E030E048EC52E45ED420E030E04FE7CC
:1002400053E459D46B017C018EE571D28C2FA0D27E
:1002500020E030E04AEF53E4C701B60126D320E0A6
:1002600030E040E05FE3BDD288D3862F91D287D2C1
:10027000CF91FF90EF90DF90CF900895AA980895C6
:10028000AA9A0895CF93DF93EC01A89AF7DF2FE0A5
:1002900030E061E070E0AB01022E02C0440F551F58
:1002A0000A94E2F74C235D23452B11F0A99A01C073
:1002B000A99881E38A95F1F70000A8988AE48A95C5
:1002C000F1F7A89A2150310930F7AA9AD9DFDF91C6
:1002D000CF910895A09AA19AA29AA89AAA9A08954D
:1002E000F9DF26E686EE90E0215080409040E1F76D
:1002F00081E390E0C7DF26E686EE90E02150804063
:100300009040E1F780E391E0BDDF26E686EE90E0E5
:10031000215080409040E1F780E392E0B3DF26E691
:1003200086EE90E0215080409040E1F785E293E036
:10033000A9DF8FEF9FE80197F1F700C00000089553
:10034000BC9A813021F028F0823029F00895C498B9
:100350000895C49A089598B380E1892788BB0895C9
:10036000CF93DF9380E8E3D181E012D208D281E815
:10037000DED120D2D82F29D2C82F01D26C2F70E025
:100380007D2B072E000C880B990B25D327E137EB2B
:1003900041ED58E3B0D3DF91CF910895BF92CF9252
:1003A000DF92EF92FF920F931F93CF93DF93B82EBC
:1003B000082F10E0C0E0D0E0C12CD12C7601D0DFB6
:1003C0009B01AC01C701B6010CD26B017C018FEF20
:1003D0009FE80197F1F700C0000021960C171D0758
:1003E00074F76B2D70E080E090E0F3D29B01AC01DC
:1003F000C701B6015AD2DF91CF911F910F91FF90A3
:10040000EF90DF90CF90BF900895C0980895C09A64
:100410000895C19A85E08A95F1F7C19808951F93D0
:10042000CF93DF93182FD8E0C0E89C2F912321F4BD
:1004300098B3917198BB01C0C29AC695EADFD150BA
:10044000A1F7DF91CF911F910895DFDF80E8E7DF0B
:1004500080E8E5DFDCCF08951F93CF93DF93C8E0FA
:1004600010E0D0E8D6DFB3991D2BD695C150D1F757
:10047000812FDF91CF911F9108951F93CF93DF9329
:10048000C4DF8CE0CCDFE8DFC82FE6DFD82FE4DF65
:10049000182FBDDF6D2F70E0660F771F660F771F77
:1004A000660F771F2C2F30E0322F2227330F330FA8
:1004B000330F622B732BCB01770FAA0BBB0B12955B
:1004C00016951770BC01CD01612B85D220E030E07C
:1004D00040E05CE310D3DF91CF911F91089587B383
:1004E000876087BBC09AC19808958FE589B910923B
:1004F000900088E18AB9089580E487B987E886B9D1
:10050000089597B18770987F892B87B981E38A9581
:10051000F1F70000369A3699FECF84B195B108956F
:1005200080E0EFDFBC01660F771F660F771F860F35
:10053000971FBC0180E090E04CD220E030EC4FE708
:1005400054E4B3D19F938F937F936F938EE191E0A7
:100550009F938F930E94B00A0F900F900F900F906F
:100560000F900F900895CF93DF93CDB7DEB72A9702
:100570000FB6F894DEBF0FBECDBFACDE2FEF8FE716
:1005800094E0215080409040E1F700C00000A8DED8
:10059000ACDF80E091E09093BB018093BA018CE2E4
:1005A00091E0F1D79CDF51DFBCD0AFEFBFE726E190
:1005B000A150B0402040E1F700C0000080E016DE0E
:1005C00081E014DE40E050E060E670E480E024DE8C
:1005D00093DFA6DF0F2E412C512CF0E66F2EF0E4B6
:1005E0007F2EF02D0F2EF1E68F2EF1E09F2EF02DB5
:1005F000CE0101961C0184E6D1DE162F072FB82EFE
:10060000A92E28EB3EE145E05EE371D288235CF140
:100610002DEC3CEC4CE45DE3C301B201E1D02B01D5
:100620003C01AB01BC0180E0F7DD84E6B7DE162FAC
:10063000072FB82EA92E9F938F937F936F939F922E
:100640008F928ED70F900F900F900F900F900F906A
:1006500028EB3EE145E05EE3612F702F8B2D9A2D54
:1006600046D28823ACF636DE20E030E04AE754E498
:10067000612F702F8B2D9A2D3ED27FD11F926F93B9
:10068000A0E8B1E0BF93AF933F922F92ACD73F92D7
:100690002F92A4E8B1E0BF93AF9362D7898190E035
:1006A000F1DD86E696EEA0E081509040A040E1F7B3
:1006B0008A8190E09160E6DDB6E626EE80E0B150FA
:1006C00020408040E1F78B8190E09260DBDD96E690
:1006D000A6EEB0E09150A040B040E1F781E493E095
:1006E000D1DDCBDE9F938F937F936F93AF92BF92B9
:1006F0000F931F93ACE8B1E0BF93AF9331D710DFF6
:100700008FEF9FE7A6E181509040A040E1F700C045
:1007100000000FB6F894DEBF0FBECDBF82E010DE42
:100720006ACF1092710080E2809370000895CF9399
:10073000DF93E4E7F0E024EAA1E7B0E0C3E7D0E02C
:1007400034E844E9208390819923ECF79C91987FC9
:10075000983011F09031B1F78883308390819923DC
:10076000ECF79C91987F903211F0983529F44083F2
:10077000908194FDFDCFE6CFDF91CF91089584E97C
:1007800080937400E4E7F0E0808184FDFDCF08955C
:100790008093730084E880937400E4E7F0E0808144
:1007A0008823ECF790917100987F81E0983209F4EA
:1007B00080E0089584EC80937400E4E7F0E08081A9
:1007C0008823ECF780917300089584E88093740087
:1007D000E4E7F0E080818823ECF7809173000895CE
:1007E0005058BB27AA270ED048C139D130F03ED18E
:1007F00020F031F49F3F11F41EF42EC10EF4E09569
:10080000E7FB24C1E92F4AD180F3BA1762077307C7
:100810008407950718F071F49EF562C10EF4E09517
:100820000B2EBA2FA02D0B01B90190010C01CA01AA
:10083000A0011124FF27591B99F0593F50F4503E55
:1008400068F11A16F040A22F232F342F4427585F47
:10085000F3CF469537952795A795F0405395C9F75F
:100860007EF41F16BA0B620B730B840BBAF0915017
:10087000A1F0FF0FBB1F661F771F881FC2F70EC0B6
:10088000BA0F621F731F841F48F487957795679589
:10089000B795F7959E3F08F0B3CF9395880F08F072
:1008A0009927EE0F9795879508950CD0E6C0DED076
:1008B00040F0D5D030F021F45F3F19F0C7C051119E
:1008C00010C1CAC0EBD098F39923C9F35523B1F3F3
:1008D000951B550BBB27AA2762177307840738F0AF
:1008E0009F5F5F4F220F331F441FAA1FA9F333D00E
:1008F0000E2E3AF0E0E830D091505040E695001CC2
:10090000CAF729D0FE2F27D0660F771F881FBB1F7D
:10091000261737074807AB07B0E809F0BB0B802D57
:10092000BF01FF2793585F4F2AF09E3F510568F0A3
:100930008DC0D7C05F3FECF3983EDCF3869577958A
:100940006795B795F7959F5FC9F7880F911D9695A5
:10095000879597F90895E1E0660F771F881FBB1F01
:10096000621773078407BA0720F0621B730B840BAE
:10097000BA0BEE1F88F7E095089598D088F09F573E
:1009800090F0B92F9927B751A0F0D1F0660F771FDB
:10099000881F991F1AF0BA95C9F712C0B13081F0BB
:1009A0009FD0B1E008959CC0672F782F8827B85F4B
:1009B00039F0B93FCCF3869577956795B395D9F71C
:1009C0003EF490958095709561957F4F8F4F9F4F26
:1009D0000895E89409C097FB3EF490958095709532
:1009E00061957F4F8F4F9F4F9923A9F0F92F96E97B
:1009F000BB279395F695879577956795B795F111F0
:100A0000F8CFFAF4BB0F11F460FF1BC06F5F7F4F8C
:100A10008F4F9F4F16C0882311F096E911C077239E
:100A200021F09EE8872F762F05C0662371F096E8A7
:100A3000862F70E060E02AF09A95660F771F881F76
:100A4000DAF7880F9695879597F9089597F99F6734
:100A500080E870E060E008959FEF80EC0895002446
:100A60000A941616170618060906089500240A9413
:100A700012161306140605060895092E0394000C99
:100A800011F4882352F0BB0F40F4BF2B11F460FF28
:100A900004C06F5F7F4F8F4F9F4F089557FD905851
:100AA000440F551F59F05F3F71F04795880F97FB32
:100AB000991F61F09F3F79F08795089512161306EC
:100AC0001406551FF2CF4695F1DF08C0161617061B
:100AD0001806991FF1CF8695710561050894089550
:100AE000E894BB2766277727CB0197F9089566D04E
:100AF00008F48FEF08950BD0C0CFB1DF28F0B6DF38
:100B000018F0952309F0A2CFA7CF1124EACFC6DFB2
:100B1000A0F3959FD1F3950F50E0551F629FF00110
:100B2000729FBB27F00DB11D639FAA27F00DB11D69
:100B3000AA1F649F6627B00DA11D661F829F2227F2
:100B4000B00DA11D621F739FB00DA11D621F839F79
:100B5000A00D611D221F749F3327A00D611D231F4F
:100B6000849F600D211D822F762F6A2F11249F579D
:100B700050408AF0E1F088234AF0EE0FFF1FBB1FC0
:100B8000661F771F881F91505040A9F79E3F51055F
:100B900070F05CCFA6CF5F3FECF3983EDCF3869518
:100BA00077956795B795F795E7959F5FC1F7FE2B0A
:100BB000880F911D9695879597F90895990F0008CC
:100BC000550FAA0BE0E8FEEF16161706E807F9071F
:100BD000C0F012161306E407F50798F0621B730BBA
:100BE000840B950B39F40A2661F0232B242B252B3B
:100BF00021F408950A2609F4A140A6958FEF811DDE
:100C0000811D08952F923F924F925F926F927F9233
:100C10008F929F92AF92BF92CF92DF92EF92FF920C
:100C20000F931F93CF93DF93CDB7DEB763970FB6C4
:100C3000F894DEBF0FBECDBF6C014B012A01FC0151
:100C400017821682838181FF29C3AE014F5F5F4FF8
:100C50003A01F6019381F40193FD859193FF81910F
:100C60004F01882309F416C3853239F493FD859129
:100C700093FF81914F01853231F4B60190E038D471
:100C800052012501E6CF10E0F12C20E02032A0F443
:100C90008B3269F030F4803259F0833269F420618C
:100CA0002CC08D3239F0803339F4216026C02260A7
:100CB000246023C0286021C027FD27C030ED380FF5
:100CC0003A3078F426FF06C0FAE01F9F300D112459
:100CD000132F13C04AE0F49E300D1124F32E20622E
:100CE0000CC08E3221F426FDD5C2206406C08C369D
:100CF00011F4206802C0883641F4F40193FD859117
:100D000093FF81914F018111C1CF9BEB980F9330DD
:100D100018F42061805E06C09BE9980F933008F0BC
:100D200064C12F7E26FF16E02F73322E853619F40C
:100D30002064322E08C0863621F4F22FF0683F2E50
:100D400002C01111115037FE07C01C3350F4EE24BD
:100D5000E394E10E27E00BC0183038F027E017E0ED
:100D600005C027E04CE3E42E02C0212FE12C520104
:100D700044E0A40EB11CF2016081718182819381F3
:100D80000E2DA301C7D22C01098100FF02C003FF71
:100D900007C031FC08C032FE09C030E2232E07C074
:100DA0002DE2222E04C09BE2292E01C0212C802F8F
:100DB0008C7019F0211051C28DC237FE0FC0E40CA7
:100DC00004FF04C08A81813309F4EA941E1474F587
:100DD000F8E0FE1578F588E0E82E2CC036FC2AC035
:100DE000812F90E0841595059CF02CEF42162FEF93
:100DF000520674F0432D4068342E0AC0E2E0F0E061
:100E0000EC0FFD1FE10FF11D8081803319F41150AB
:100E10001111F4CF37FE0EC0EE24E394E10E812FC2
:100E200090E0481659062CF4141904C0EE24E394FB
:100E300001C010E037FE06C01414150434F4C201DA
:100E4000019605C085E090E002C081E090E02110AD
:100E50000196112331F0212F30E02F5F3F4F820F99
:100E6000931F2F2D30E08217930714F4F81A01C056
:100E7000F12C832D897041F4FF2031F0B60180E21E
:100E800090E036D3FA94F8CF222021F0B601822DDB
:100E900090E02ED333FC08C0FF2031F0B60180E390
:100EA00090E026D3FA94F8CF37FE58C0942D852DC4
:100EB00057FE02C090E080E0292E382E20E030E07E
:100EC000A2014E1951095D874C87A20142195309AD
:100ED0005F874E87612F70E044275527461B570BCD
:100EE000598B488B5FEF2516350641F4B6018EE22B
:100EF00090E02A8B3B8BFCD23B892A894214530415
:100F00006CF04C855D854215530544F4EE85FF85F4
:100F1000E20FF31FE60DF71D818101C080E351E070
:100F2000251A31082F5F3F4F488959892416350605
:100F300044F0B60190E02A8B3B8BDAD22A893B89B8
:100F4000D1CF2414350439F49A81963318F49533AB
:100F500011F404FF81E3B60190E045C08A8181333A
:100F600009F00F7EB60190E0C3D2111105C034FC28
:100F700016C085E690E015C0B6018EE290E0B8D2CA
:100F800082E0EE24E394E80EF301E80FF11D808186
:100F9000B60190E0ADD211508E2D99F7E8CF85E4DF
:100FA00090E0B601A5D257FC05C04114510439F4B4
:100FB00004FF05C05194419451088DE201C08BE2B9
:100FC000B60190E095D280E39AE0491651042CF0E6
:100FD0008F5F5AE0451A5108F7CFB60190E088D2EA
:100FE000B601C201C09684D24CC1833631F083373A
:100FF00079F0833509F054C020C05201E2E0AE0E12
:10100000B11CF2018081898301E010E0230113C04B
:101010005201F2E0AF0EB11CF2014080518026FF78
:1010200003C0612F70E002C06FEF7FEFC2012A8B17
:1010300054D28C012A892F7714C05201F2E0AF0EEE
:10104000B11CF2014080518026FF03C0612F70E087
:1010500002C06FEF7FEFC2012A8B34D28C012A8944
:101060002068322E23FD18C08F2D90E00817190735
:1010700098F4B60180E290E03BD2FA94F5CFF20109
:1010800037FC859137FE81912F01B60190E030D277
:10109000F110FA94015011090115110581F7F1C001
:1010A000843611F0893651F5520127FF09C0F4E06A
:1010B000AF0EB11CF20160817181828193810AC0FF
:1010C000F2E0AF0EB11CF20160817181072E000CBD
:1010D000880B990B2F76322E97FF09C0909580953B
:1010E000709561957F4F8F4F9F4F2068322E2AE079
:1010F00030E0A301A7D2E82EE6183EC0022F8537C4
:1011000021F40F7E2AE030E01DC0097F8F3691F078
:1011100018F4883559F0BEC0803719F0883711F0BF
:10112000B9C0006104FF09C0046007C024FF08C003
:10113000066006C028E030E005C020E130E002C0D3
:1011400020E132E0520107FF09C0F4E0AF0EB11C0C
:10115000F201608171818281938108C0F2E0AF0E5B
:10116000B11CF2016081718180E090E0A3016AD23C
:10117000E82EE6180F77302E36FE0BC0332D3E7F5B
:10118000E11650F434FE0AC032FC08C0332D3E7E16
:1011900005C00E2D332D03C00E2D01C0012F34FFCD
:1011A0000CC0FE01EE0DF11D8081803311F4397EFB
:1011B00008C032FF05C00E5F04C0832F867809F097
:1011C0000F5F33FD12C030FF06C01E2D0F1518F43F
:1011D0001F0D101B0F2D0F1560F4B60180E290E07B
:1011E0003B8B86D10F5F3B89F6CF0F1510F4F01AB9
:1011F00001C0F12C34FF11C0B60180E390E03B8BBD
:1012000077D13B8932FF16C031FD03C088E790E0FB
:1012100002C088E590E0B6010CC0832F867851F0BB
:1012200031FF02C08BE201C080E237FD8DE2B601E2
:1012300090E05ED1E11630F4B60180E390E058D141
:101240001150F8CFEA94F301EE0DF11D8081B60143
:1012500090E04ED1E110F6CF14C0F4E0FF1548F550
:1012600084E0F81A33FE1DC0211024C003FF27C0FC
:101270000CE810E0F32DF0713F2EF80184918111FC
:1012800021C0FF2009F4FDCCB60180E290E030D10E
:10129000FA94F7CFF6018681978123C08FEF9FEFF5
:1012A00020C0B60180E290E023D1FA94F110F9CF8A
:1012B000DBCFF12CB601822D90E01AD1D7CF00E917
:1012C00010E0D8CF31108052B60190E011D10F5FFD
:1012D0001F4FD3CF23E02F1510F483E0C2CFF12CA2
:1012E000C5CF63960FB6F894DEBF0FBECDBFDF91BA
:1012F000CF911F910F91FF90EF90DF90CF90BF9013
:10130000AF909F908F907F906F905F904F903F90A5
:101310002F900895283008F027E03327DA01990F3D
:10132000311D87FD916000966105710539F43260C9
:101330002E5F3D9330E32A95E1F708959F3F30F00B
:1013400080387105610509F03C5F3C5F3D93913049
:1013500008F08068911DDF93CF931F930F93FF9246
:10136000EF92192F987F9695E92F96959695E90F0C
:10137000FF27E251FF4F99273327EE24FF24A701CF
:10138000E70105900894079428F4360FE71EF81E2D
:10139000491F511D660F771F881F991F0694A1F7DB
:1013A0000590079428F4E70EF81E491F561FC11D2B
:1013B000770F881F991F661F0694A1F70590079461
:1013C00028F4F80E491F561FC71FD11D880F991FFB
:1013D000661F771F0694A1F70590079420F4490F24
:1013E000561FC71FD81F990F661F771F881F0694A7
:1013F000A9F784911095177041F0D695C795579528
:101400004795F794E7941A95C1F7E4E9F0E06894FA
:101410001590159135916591959105907FE27395A1
:10142000E118F10A430B560BC90BD009C0F7E10CC8
:10143000F11E431F561FC91FD01D7EF4703311F4D7
:101440008A95E6CFE894015030F0080F0AF400279F
:10145000021708F4202F2395022F7A3328F079E31E
:101460007D932A95E9F710C07D932A9589F6069415
:1014700097956795379517951794E118F10A430BDF
:10148000560BC90BD00998F023957E9173957A334A
:1014900008F070E37C932013B8F77E9170617D9320
:1014A00030F0839571E37D9370E32A95E1F7112481
:1014B000EF90FF900F911F91CF91DF91992787FDBA
:1014C00090950895FC010590615070400110D8F787
:1014D000809590958E0F9F1F0895FC01615070407C
:1014E00001900110D8F7809590958E0F9F1F089559
:1014F0000F931F93CF93DF93FB01238121FD03C043
:101500008FEF9FEF28C022FF16C0468157812481AC
:1015100035814217530744F4A081B1819D012F5FAB
:101520003F4F318320838C93268137812F5F3F4F3C
:101530003783268310C0EB01092F182F0084F18513
:10154000E02D0995892BE1F68E819F8101969F837D
:101550008E83812F902FDF91CF911F910F9108954E
:10156000CF93DF93CDB7DEB7AE014B5F5F4FFA018C
:1015700061917191AF018091BA019091BB0142DB01
:10158000DF91CF9108950F931F93CF93DF93E09155
:10159000BA01F091BB01238121FF1BC08C01D0E077
:1015A000C0E0F80181918F016091BA017091BB0197
:1015B000DB011896ED91FC911997882331F009957C
:1015C000892B79F3DFEFCFEFECCF8AE00995892BF8
:1015D00019F08FEF9FEF02C08D2F9C2FDF91CF91DD
:1015E0001F910F9108950F931F93CF93DF93CDB762
:1015F000DEB72E970FB6F894DEBF0FBECDBF0D89B4
:101600001E8986E08C831A8309838FEF9FE79E8370
:101610008D83AE01475E5F4F6F89788DCE01019655
:10162000F1DA2F813885F801E20FF31F10822E9630
:101630000FB6F894DEBF0FBECDBFDF91CF911F91E3
:101640000F910895FA01AA27283051F1203181F134
:10165000E8946F936E7F6E5F7F4F8F4F9F4FAF4FBA
:10166000B1E03ED0B4E03CD0670F781F891F9A1FCD
:10167000A11D680F791F8A1F911DA11D6A0F711D81
:10168000811D911DA11D20D009F468943F912AE08D
:10169000269F11243019305D3193DEF6CF01089575
:1016A000462F4770405D4193B3E00FD0C9F7F6CFA6
:1016B000462F4F70405D4A3318F0495D31FD40526E
:1016C000419302D0A9F7EACFB4E0A6959795879504
:1016D00077956795BA95C9F70097610571050895E3
:1016E0009B01AC010A2E069457954795379527958F
:1016F000BA95C9F7620F731F841F951FA01D089527
:04170000F894FFCF8B
:101704000000000200000000E60000000000444168
:10171400432025642072657365742E0D0A007620BB
:101724003D2025362E336620560D0A004D756C7407
:1017340069706C65204368656D69737472792042C1
:1017440061747465727920436861726765722E20D2
:101754002056657273696F6E2028312E3029200D52
:10176400005265647563696E672063757272656E95
:101774007420746F3A2025352E336620410D0A00FB
:10178400253364002D3E2025730D0A0043757272C3
:10179400656E74203D2025352E336620412C20545F
:1017A400656D7065726174757265203D2025352EF6
:0817B400316620430D0A00001C
:00000001FF
